:100000000C943D000C943B080C943B080C943B086A
:100010000C94A6010C943B080C943B080C943B08F0
:100020000C943B080C943B080C943B080C943B0844
:100030000C943B080C943B080C943B080C943B0834
:100040000C943B080C943B080C943B080C943B0824
:100050000C943B080C943B080C943B080C943B0814
:100060000C943B080C943B08010001018001010144
:100070000200108401020107800011241FBECFEF8F
:10008000D8E0DEBFCDBFE8E6F0E040E017C0B591B4
:10009000A59135912591059107FD0CC0959185910C
:1000A000EF01F92FE82F05900D92A217B307D9F7AA
:1000B000FE0104C01D92A217B307E1F7E937F40768
:0E00C00031F70E9494020C94E007F894FFCFF1
:1000CE0080910501813009F04AC083E090E00E94E2
:1000DE005206809300018091000148E250E06FEFDC
:1000EE000E94EB06682F80E090E00E94D20784E029
:1000FE0090E00E945206809300018091000148E238
:10010E0050E06FEF0E94EB06682F81E090E00E94B6
:10011E00D20785E090E00E94520680930001809104
:10012E00000148E250E06FEF0E94EB06682F82E07C
:10013E0090E00E94D20786E090E00E9452068093E3
:10014E0000018091000148E250E06FEF0E94EB0643
:10015E00682F83E090E00E94D207109205018091F3
:10016E000501823009F04AC083E090E00E945206F9
:10017E00809300018091000148E250E06FEF0E94F1
:10018E00EB06682F85E090E00E94D20784E090E0B5
:10019E000E945206809300018091000148E250E0D7
:1001AE006FEF0E94EB06682F86E090E00E94D20768
:1001BE0085E090E00E94520680930001809100013C
:1001CE0048E250E06FEF0E94EB06682F87E090E068
:1001DE000E94D20786E090E00E94520680930001B2
:1001EE008091000148E250E06FEF0E94EB06682F0D
:1001FE0088E090E00E94D2071092050180910501DF
:10020E00833009F04AC083E090E00E94520680934A
:10021E0000018091000148E250E06FEF0E94EB0672
:10022E00682F8AE090E00E94D20784E090E00E945E
:10023E005206809300018091000148E250E06FEF7A
:10024E000E94EB06682F8BE090E00E94D20785E0BB
:10025E0090E00E945206809300018091000148E2D6
:10026E0050E06FEF0E94EB06682F8CE090E00E944A
:10027E00D20786E090E00E945206809300018091A2
:10028E00000148E250E06FEF0E94EB06682F8DE010
:10029E0090E00E94D20710920501809105018430F2
:1002AE0009F04CC083E090E00E945206809300015A
:1002BE008091000148E250E06FEF0E94EB06682F3C
:1002CE008FE090E00E94D20784E090E00E945206F8
:1002DE00809300018091000148E250E06FEF0E9490
:1002EE00EB06682F80E190E00E94D20785E090E057
:1002FE000E945206809300018091000148E250E076
:10030E006FEF0E94EB06682F81E190E00E94D2070A
:10031E0086E090E00E9452068093000180910001D9
:10032E0048E250E06FEF0E94EB06682F82E190E00A
:0E033E000E94D207109205011092040108954A
:10034C001F920F920FB60F9211242F933F934F933E
:10035C005F936F937F938F939F93AF93BF93EF9321
:10036C00FF93309905C0809106018F5F8093060141
:10037C00319909C0809104018F5F809304018093AF
:10038C0005010E9467003299B8C0809103018F5F0C
:10039C0080930301833009F45DC028F4813051F05F
:1003AC00823081F1AAC0843009F47CC0853009F414
:1003BC00A1C0A3C060E070E080E00E94EB078093D6
:1003CC00020190E00E941D0861E070E080E80E944C
:1003DC00EB078093020190E00E94220862E070E03B
:1003EC0080E80E94EB07809302010E94320863E0D0
:1003FC0070E080E80E94EB078093020190E00E947D
:10040C0035087BC065E070E080E80E94EB078093C4
:10041C00020190E00E941D0866E070E080E80E94F6
:10042C00EB078093020190E00E94220867E070E0E5
:10043C0080E80E94EB07809302010E94320868E07A
:10044C0070E080E80E94EB078093020190E00E942C
:10045C00350853C06AE070E080E80E94EB07809397
:10046C00020190E00E941D086BE070E080E80E94A1
:10047C00EB078093020190E00E9422086CE070E090
:10048C0080E80E94EB07809302010E9432086DE025
:10049C0070E080E80E94EB078093020190E00E94DC
:1004AC0035082BC06FE070E080E80E94EB0780936A
:1004BC00020190E00E941D0860E170E080E80E945B
:1004CC00EB078093020190E00E94220861E170E04A
:1004DC0080E80E94EB07809302010E94320862E1DF
:1004EC0070E080E80E94EB078093020190E00E948C
:1004FC00350803C081E080930401FF91EF91BF9117
:10050C00AF919F918F917F916F915F914F913F919F
:0C051C002F910F900FBE0F901F901895AC
:10052800F8940E946F07E1E6F0E087E0808310828C
:1005380040E850E060E070E080E090E00E948205D2
:100548002BE930E040E054E066E070E080E090E0C5
:100558000E946D0380E090E00E949F0740E054E015
:1005680063E070E080E090E00E94170480E090E093
:100578000E94B007789480910601811105C084E03B
:100588008BB90E94EA05F7CF80910601813029F4E2
:1005980080E28BB910920301EECF80910601823080
:1005A80009F08FC080E18BB981E30E94F4070E94B3
:1005B800FB07C82F0E94FB07182F0E94FB07F82E85
:1005C8008C2F0E942F08EC01812F0E942F088C018C
:1005D8008F2D0E942F08AC01B801CE010E94880718
:1005E80048E250E06FEF0E94EB060E941D0882E38C
:1005F8000E94F4070E94FB07C82F0E94FB07182FD0
:100608000E94FB07F82E8C2F0E942F08EC01812FE7
:100618000E942F088C018F2D0E942F08AC01B80171
:10062800CE010E94880748E250E06FEF0E94EB0677
:100638000E94220883E30E94F4070E94FB07C82F48
:100648000E94FB07182F0E94FB07F82E8C2F0E9490
:100658002F08EC01812F0E942F088C018F2D0E94FA
:100668002F08AC01B801CE010E94880748E250E08B
:100678006FEF0E94EB060E94320884E30E94F407A1
:100688000E94FB07C82F0E94FB07182F0E94FB0738
:10069800F82E8C2F0E942F08EC01812F0E942F0822
:1006A8008C018F2D0E942F08AC01B801CE010E9449
:1006B800880748E250E06FEF0E94EB060E94350879
:1006C8005ACF80910601833008F455CF1092060165
:0206D80052CFFF
:1006DA00F90134B1326034B910928000109281006D
:1006EA00892B31F4A0E8B0E08C9180688C9305C026
:1006FA00A0E8B0E08C91806C8C936115710559F477
:10070A00A0E8B0E08C9181608C93A1E8B0E08C9174
:10071A0088608C9352C06130710559F4A0E8B0E04A
:10072A008C9182608C93A1E8B0E08C9188608C9364
:10073A0044C06230710559F4A0E8B0E08C9183603E
:10074A008C93A1E8B0E08C9188608C9336C06330BA
:10075A00710531F4A0E8B0E08C9181608C932DC0D2
:10076A006430710531F4A0E8B0E08C9182608C931A
:10077A0024C06530710531F4A0E8B0E08C91836043
:10078A008C931BC06630710559F4A0E8B0E08C91D7
:10079A0082608C93A1E8B0E08C9188618C930DC043
:1007AA006730710551F4A0E8B0E08C9182608C93B7
:1007BA00A1E8B0E08C9180618C9340345105E1F05E
:1007CA003CF44115510561F04830510579F025C0D6
:1007DA00411581E05807B1F041155440C9F01DC0D8
:1007EA00A1E8B0E08C9181608C9317C0A1E8B0E0D9
:1007FA008C9182608C9311C0A1E8B0E08C918360E7
:10080A008C930BC0A1E8B0E08C9184608C9305C0F6
:10081A00A1E8B0E08C9185608C93F0938700E09317
:04082A0086000895A7
:10082E0024B1286024B91092B0001092B100892B27
:10083E0031F4E0EBF0E080818068808305C0E0EB6E
:10084E00F0E08081806C80836130710531F4E0EBE3
:10085E00F0E080818160808344C06230710531F4A4
:10086E00E0EBF0E08081826080833BC063307105F5
:10087E0031F4E0EBF0E080818360808332C064303D
:10088E00710531F4E1EBF0E080818860808329C04E
:10089E006530710559F4E0EBF0E080818160808372
:1008AE00E1EBF0E08081886080831BC066307105CB
:1008BE0059F4E0EBF0E0808182608083E1EBF0E0C0
:1008CE008081886080830DC06730710551F4E0EB44
:1008DE00F0E0808183608083E1EBF0E080818860CE
:1008EE00808340345105E1F03CF44115510561F02F
:1008FE004830510579F00895411581E05807B1F05F
:10090E0041155440C9F00895E1EBF0E0808181601B
:10091E0080830895E1EBF0E080818260808308950A
:10092E00E1EBF0E08081836080830895E1EBF0E0FD
:10093E008081846080830895E1EBF0E080818760A0
:04094E008083089505
:1009520010C00E94090858F00E94020840F029F4D1
:100962005F3F29F00C94170851110C9411080C9454
:1009720038080E944D0768F39923B1F3552391F388
:10098200951B550BBB27AA2762177307840738F0FC
:100992009F5F5F4F220F331F441FAA1FA9F335D059
:1009A2000E2E3AF0E0E832D091505040E695001C0D
:1009B200CAF72BD0FE2F29D0660F771F881FBB1FC7
:1009C200261737074807AB07B0E809F0BB0B802DA5
:1009D200BF01FF2793585F4F3AF09E3F510578F0D1
:1009E2000C9417080C9411085F3FE4F3983ED4F37B
:1009F200869577956795B795F7959F5FC9F7880FA5
:100A0200911D9695879597F90895E1E0660F771FF6
:100A1200881FBB1F621773078407BA0720F0621B87
:0E0A2200730B840BBA0BEE1F88F7E095089556
:100A30000FC00E94020838F00E94090820F0952398
:100A400011F00C9417080C94380811240C94110818
:100A50000E944D0770F3959FC1F3950F50E0551F0D
:100A6000629FF001729FBB27F00DB11D639FAA2703
:100A7000F00DB11DAA1F649F6627B00DA11D661F52
:100A8000829F2227B00DA11D621F739FB00DA11D73
:100A9000621F839FA00D611D221F749F3327A00D2D
:100AA000611D231F849F600D211D822F762F6A2FC9
:100AB00011249F5750409AF0F1F088234AF0EE0F2E
:100AC000FF1FBB1F661F771F881F91505040A9F75B
:100AD0009E3F510580F00C9417080C9411085F3F5D
:100AE000E4F3983ED4F3869577956795B795F79597
:100AF000E7959F5FC1F7FE2B880F911D969587950F
:040B000097F90895C4
:100B040010927C0010927A00009731F4ECE7F0E048
:100B140080818064808307C0019729F4ECE7F0E0CA
:100B24008081806C80836115710531F4ECE7F0E01D
:100B340080818062808308C06130710529F4ECE70C
:100B4400F0E080818F7D80834230510531F4EAE703
:100B5400F0E080818160808335C04430510531F4F8
:100B6400EAE7F0E08081826080832CC04830510540
:100B740031F4EAE7F0E080818360808323C0403170
:100B8400510531F4EAE7F0E08081846080831AC083
:100B94004032510531F4EAE7F0E0808185608083DA
:100BA40011C04034510531F4EAE7F0E080818660F9
:100BB400808308C04038510529F4EAE7F0E08081D9
:100BC40087608083EAE7F0E080818068808308950D
:100BD400809101018430A9F484E090E00E945206DF
:100BE400809300018091000148E250E06FEF0E9481
:100BF400EB060E941D08809101018F5F8093010123
:100C04000895809101018530A9F485E090E00E9467
:100C14005206809300018091000148E250E06FEF9A
:100C24000E94EB060E942208809101018F5F80934D
:100C340001010895809101018630A9F486E090E0D5
:100C44000E945206809300018091000148E250E026
:100C54006FEF0E94EB060E943208809101018F5FC2
:100C6400809301010895809101018730A9F487E000
:100C740090E00E945206809300018091000148E2B6
:100C840050E06FEF0E94EB060E943508809101014D
:100C94008F5F80930101089584E08093010108959A
:100CA4009C01ECE7F0E09081907F90832115310561
:100CB40021F48081807F80833EC02130310531F46E
:100CC400ECE7F0E080818160808335C0223031051B
:100CD40031F4ECE7F0E08081826080832CC0233023
:100CE400310531F4ECE7F0E080818360808323C038
:100CF4002430310531F4ECE7F0E0808184608083B6
:100D04001AC02530310531F4ECE7F0E080818560CC
:100D1400808311C02630310531F4ECE7F0E08081A6
:100D24008660808308C02730310529F4ECE7F0E0C1
:100D3400808187608083EAE7F0E08081806480833B
:100D440080917A0086FDFCCFEAE7F0E08081806143
:080D540080838091790008956D
:100D5C00E89409C097FB3EF4909580957095619549
:100D6C007F4F8F4F9F4F9923A9F0F92F96E9BB27FF
:100D7C009395F695879577956795B795F111F8CF7B
:100D8C00FAF4BB0F11F460FF1BC06F5F7F4F8F4FE6
:100D9C009F4F16C0882311F096E911C0772321F0DC
:100DAC009EE8872F762F05C0662371F096E8862F74
:100DBC0070E060E02AF09A95660F771F881FDAF7CB
:0A0DCC00880F9695879597F9089512
:100DD600CF92DF92EF92FF921F93CF93DF93162F5E
:100DE600EA01682F70E080E090E00E94AE066B0199
:100DF6007C01612F70E080E090E00E94B0069B01CC
:100E0600AC01C701B6010E9427086B017C01BE0137
:100E160080E090E00E94AE06A70196010E942B0892
:100E26000E941E07CB01DF91CF911F91FF90EF909B
:060E3600DF90CF9008954B
:100E3C000E94550788F09F5798F0B92F9927B75102
:100E4C00B0F0E1F0660F771F881F991F1AF0BA9562
:100E5C00C9F714C0B13091F00E941008B1E00895A8
:100E6C000C941008672F782F8827B85F39F0B93F9A
:100E7C00CCF3869577956795B395D9F73EF4909515
:0E0E8C008095709561957F4F8F4F9F4F089511
:100E9A0057FD9058440F551F59F05F3F71F0479521
:100EAA00880F97FB991F61F09F3F79F08795089506
:100EBA00121613061406551FF2CF4695F1DF08C025
:100ECA00161617061806991FF1CF86957105610542
:040EDA0008940895DB
:100EDE0017B888B1876088B98AB184638AB98AB134
:100EEE0080668AB984B18E6084B9E8E6F0E08081CC
:100EFE0082608083ECE6F0E0808187608083789466
:020F0E00089544
:100F1000E4E6E89F9001E99F300D1124CB01880F92
:100F2000991F660F771F660F771F660F771F680F71
:0E0F3000791FC901860F971F840F951F089522
:100F3E0024B1246024B9892B31F4E0E8F0E08081FB
:100F4E00806280830895E0E8F0E080818063808392
:020F5E000895F4
:100F60002AB128602AB9892B31F4E0EBF0E08081C6
:100F7000806280830895E0EBF0E08081806380836D
:020F80000895D2
:100F8200092E0394000C11F4882352F0BB0F40F495
:100F9200BF2B11F460FF04C06F5F7F4F8F4F9F4FD5
:020FA2000895B0
:100FA400262FF999FECF1FBA92BD81BD20BD0FB681
:0C0FB400F894FA9AF99A0FBE019608957D
:100FC000EC010E9440080E943F08CE010E944108A7
:060FD000CE010E943D0865
:100FD600CB01F999FECF92BD81BDF89A992780B5CC
:020FE60008956C
:0E0FE8009091C00095FFFCCF8093C600089545
:0E0FF6008091C0008823E4F78091C600089522
:0E10040000240A941616170618060906089509
:0E10120000240A94121613061406050608950B
:0E102000E894BB2766277727CB0197F9089540
:0C102E0097F99F6780E870E060E008958B
:0A103A0090938900809388000895C8
:0A10440090938B0080938A000895BA
:08104E000E94A9040C94C107E3
:081056000E9418050C94C1076B
:06105E0090E0C097089528
:061064008093B300089523
:06106A008093B40008951C
:061070009FEF80EC0895E3
:041076000C940000D6
:04107A000E9465006B
:02107E000895D3
:021080000895D1
:021082000895CF
:011084000368
:00000001FF
